:100000000C9440000C9468000C946A000C946800F6
:100010000C9468000C9468000C9468000C946800C0
:100020000C9468000C9468000C9468000C94A20076
:100030000C9468000C9474000C9468000C94680094
:100040000C9468000C9468000C9468000C94680090
:100050000C9468000C9468000C9468000C94680080
:100060000C9468000C9468000C9468000C94680070
:100070000C9468000C9468000C9468005D14C6141D
:1000800011241FBECFEFD8E0DEBFCDBF14E0A0E04B
:10009000B1E0E2E8F5E302C005900D92AE35B1079C
:1000A000D9F725E0AEE5B4E001C01D92A73AB2074A
:1000B000E1F710E0CFE3D0E004C02197FE010E94F9
:1000C0000B15CE33D107C9F70E942D140C94AD1A2D
:1000D0000C9400001F921FB61F921124109262040C
:1000E0001F901FBE1F9018951F920F920FB60F9270
:1000F00011242F933F934F935F936F937F938F932D
:100100009F93AF93BF93EF93FF9380915F0481110F
:1001100008C080E995E00E947F0380E995E00E9495
:100120000204FF91EF91BF91AF919F918F917F91C9
:100130006F915F914F913F912F910F900FBE0F9054
:100140001F9018951F920F920FB60F9211242F93A4
:100150003F934F935F936F937F938F939F93AF934F
:10016000BF93EF93FF9380915E04811104C088E8F0
:1001700095E00E94070DFF91EF91BF91AF919F9184
:100180008F917F916F915F914F913F912F910F9040
:100190000FBE0F901F9018951F93CF93DF93CDB78D
:1001A000DEB766970FB6F894DEBF0FBECDBFF894EA
:1001B00081E080935F0480935E04609102017091FE
:1001C000030189E595E00E94970587E795E00E9485
:1001D000060311E080916204811123C083E694E05C
:1001E0000E94240783E694E00E94760A83E694E066
:1001F0000E94A208811102C01093620486E1E5E426
:10020000F1E0DE01119601900D928A95E1F748E048
:1002100050E0BE016F5F7F4F81EA95E00E94471179
:10022000D9CF87E795E00E940903789466960FB6C8
:10023000F894DEBF0FBECDBFDF91CF911F9108951F
:100240001F93CF93DF9300D000D000D0CDB7DEB79F
:1002500010925F0410925E0460E083E894E00E94D4
:10026000301160E080E995E00E94FF036091000199
:100270007091010189E595E00E94970583E894E07B
:100280000E94301080E995E00E94070480E995E023
:100290000E94020480E995E00E9423049C01215001
:1002A00031093E832D8310916204113009F041C061
:1002B00088E895E00E94A40C20E030E040E551E49D
:1002C00069837A838B839C8369817A818B819C810A
:1002D0000E94CE1487FF2AC010935F0480E995E046
:1002E0000E94A7032D813E8182179307B0F080E919
:1002F00095E00E942704882381F01092620480E92F
:1003000095E00E94A7032D813E812817390729F027
:10031000B90180E995E00E94AD0380E995E00E9473
:10032000070483E894E00E946A0EBDCF10925F0438
:10033000D5CF26960FB6F894DEBF0FBECDBFDF91A6
:10034000CF911F9108956F927F928F92AF92CF922B
:10035000DF92EF92FF920F931F93CF93DF9300D022
:100360000F92CDB7DEB73C01F62ED42E122F049695
:100370000E949D04C30107960E94A405C30109962B
:100380000E94A405C3010B960E94A405C3010D960B
:100390000E94A405C3010F960E94A405F3011282D6
:1003A00080E1808381834D2D6F2DCE0101960E94C7
:1003B0009E0489819A81AB81F30184839583A6830E
:1003C000402F612FCE0101960E94570689819A81A4
:1003D000F301908787834C2D6E2DCE0101960E94EC
:1003E000570689819A81F30192878187482D6A2D6A
:1003F000CE0101960E94570689819A81F301948764
:1004000083874B896A89CE0101960E9457068981AC
:100410009A81F301968785874D896C89CE01019673
:100420000E94570689819A81F301908B87870F90EC
:100430000F900F90DF91CF911F910F91FF90EF9050
:10044000DF90CF90AF908F907F906F9008950F9333
:100450001F93CF93DF93EC01062F142F099660FFB3
:1004600018C00E94A505CE010B9601FF15C00E9481
:10047000A505CE010D9610FF12C00E94A505CE0164
:100480000F9611FF0FC0DF91CF911F910F910C9428
:10049000A5050E94DE05E7CF0E94DE05EACF0E9497
:1004A000DE05EDCFDF91CF911F910F910C94DE050A
:1004B000CF93DF93EC010E9427022496CE010E9485
:1004C000DF04CE01DF91CF910C94DC040F931F93D6
:1004D000CF93DF938C01FC016281462F0E9458026A
:1004E000C0E0882381F060E0C80104960E94D9042E
:1004F000F801C2818C2F880F880F8C0FDF91CF916C
:100500001F910F910895D0E04D2F6C2FC8010E94CC
:100510005802882361F060E0C80104960E94D90463
:10052000F801D2838C2F880F880F8D0FE7CFDF5F04
:10053000D43051F7CF5FC43031F780E1DFCFEF9295
:10054000FF920F931F93CF93DF9300D000D0CDB7CE
:10055000DEB78C01FC0180818183C8010E946602A4
:10056000F8018083CE0104960E943811F801808141
:100570008031E1F091818917C9F01F928F9384E750
:1005800091E09F938F93CE0101967C019F938F936F
:100590000E94D717AC01B701CE0104960E94471103
:1005A0000F900F900F900F900F900F90F801908187
:1005B000903121F081E02181291301C080E00F906A
:1005C0000F900F900F90DF91CF911F910F91FF909F
:1005D000EF900895CF93DF93EC018881803129F06B
:1005E000CE010E9466028883F8CFDF91CF910895F3
:1005F000CF93DF93EC018881803129F4CE010E94F2
:1006000066028883F8CFDF91CF91089507960C9406
:10061000A505CF93DF93EC0107960E94DE05CE017E
:1006200009960E94DE05CE010B960E94DE05CE01E2
:100630000D960E94DE05CE010F96DF91CF910C94AE
:10064000DE05FC01808108950F931F93CF93DF9304
:1006500000D0CDB7DEB78C0102960E94A405C80178
:1006600004960E94A405C80106960E942A04F80177
:100670001086178211861586148661E0CE010196D8
:100680000E94570489819A81F8019183808346E012
:1006900064E4CE0101960E94570689819A81F8018F
:1006A0009383828342E064E4CE0101960E94570660
:1006B00089819A81F801958384830F900F90DF914F
:1006C000CF911F910F9108950F931F93CF93DF93B5
:1006D000EC018C010E5F1F4FC8010E94A5058FE041
:1006E00097E20197F1F700C00000C8010E94DE0503
:1006F0001D861C86DF91CF911F910F9108950F9356
:100700001F93CF93DF93EC018C010C5F1F4FC80147
:100710000E94A50587EE93E00197F1F700C0000065
:10072000C8010E94DE058C859D858F39954049F46E
:100730001D861C8681E08987DF91CF911F910F91E3
:1007400008958C859D8501969D878C87F5CFFC014A
:100750008485958508950C945B04CF92DF92EF9287
:10076000FF920F931F93CF93DF938C01EB010E94B5
:100770006403E4E6F0E0CE01BF010E94F7149C019F
:10078000CE01821B930BBF010E94F7148CE3869F5E
:10079000E001879FD00D1124C20FD31FF12CE12C53
:1007A000680184E0C80ED11CC6010E94A505E7EED1
:1007B000F3E03197F1F700C00000C6010E94DE05AA
:1007C000FFEFEF1AFF0ACE15DF0570F7F801D587A6
:1007D000C487DF91CF911F910F91FF90EF90DF9031
:1007E000CF900895CF93DF93EC0119860E94AD035B
:1007F0008C859D8598878F83DF91CF910895FC012B
:1008000061870895FC01628573850C945B04CF9326
:10081000DF93EC0161E006960E943304969587957C
:100820009695879525E83EE14EE1849F2019310990
:100830001124869586958695281B31093B872A8742
:10084000DF91CF910895FC01878190850895FC0187
:100850008185089510927C0086E880937A0008953F
:1008600010927A00089580917C00807E80937C00B5
:1008700080917C006770682B60937C0080917A0087
:10088000806480937A0080917A0084FFFCCF80910D
:100890007A00806180937A002091780090917900AD
:1008A000892F90E0982F8827820F911D0895FC01D1
:1008B000608311820895FC01F8942081213089F031
:1008C000223029F121110BC016BC67BD82E484BD22
:1008D00082E085BD80916E00816080936E00789487
:1008E000089510928500109284007093890060939F
:1008F000880080E4809380008DE0809381001092D6
:10090000820080916F00826080936F00E8CF109228
:10091000B2006093B30082E48093B00085E08093DE
:10092000B10080917000816080937000D8CFFC018D
:1009300081810895FC01618308950895FC0110826E
:10094000418362836334F9F028F4613431F0623416
:1009500079F00895643411F1089521B181E090E0B7
:1009600001C0880F4A95EAF78095822381B90895DE
:1009700024B181E090E001C0880F4A95EAF78095A4
:10098000822384B9089527B181E090E001C0880FE7
:100990004A95EAF78095822387B908952AB181E0C4
:1009A00090E001C0880F4A95EAF7809582238AB9C2
:1009B0000895FC0160830895FC0180810895FC0185
:1009C0008281833471F128F4813431F08234B9F0BA
:1009D00008958434C1F108958FE59AEE0197F1F7F7
:1009E00000C0000080B190E0218102C095958795FC
:1009F0002A95E2F780FF02C081E08083089583B1E9
:100A000090E0218102C0959587952A95E2F780FFB5
:100A1000F5CF8FE59AEE0197F1F700C0000083B1A2
:100A2000E2CF86B190E0218102C0959587952A9505
:100A3000E2F780FFE3CF8FE59AEE0197F1F700C070
:100A4000000086B1D0CF89B190E0218102C0959598
:100A500087952A95E2F780FFD1CF8FE59AEE01972F
:100A6000F1F700C0000089B1BECFFC0110824183C4
:100A70006283F8948281823421F0843479F078940E
:100A800008952398EA9A80916900806280936900B2
:100A900080916900806180936900F1CF818182300B
:100AA00061F0833061F75398E99A8091690088601A
:100AB0008093690080916900EECF5298E89A809106
:100AC0006900826080936900809169008160E3CF52
:100AD000FC0182818234A9F0843491F48FE59AEE8E
:100AE0000197F1F700C0000089B190E0218102C0B8
:100AF000959587952A95E2F780FF02C081E0808373
:100B000008958FE59AEE0197F1F700C0000083B1D8
:100B1000ECCFFC0160830895FC018081089545E2DB
:100B200050E064E270E00C948F0A0C94E10ACF93D9
:100B3000DF93D62FC72F60E00E94500C6D2F7C2FC3
:100B4000DF91CF910C94350C0895FC0180818334A2
:100B5000F9F028F4813431F0823479F00895843446
:100B600011F1089582B1918121E030E001C0220F9E
:100B70009A95EAF7822B82B9089585B1918121E097
:100B800030E001C0220F9A95EAF7822B85B90895CB
:100B900088B1918121E030E001C0220F9A95EAF7F7
:100BA000822B88B908958BB1918121E030E001C09A
:100BB000220F9A95EAF7822B8BB90895FC01808168
:100BC000833409F128F4813431F0823481F00895BE
:100BD000843429F1089522B1318181E090E001C08F
:100BE000880F3A95EAF78095822382B9089525B156
:100BF000318181E090E001C0880F3A95EAF7809555
:100C0000822385B9089528B1318181E090E001C047
:100C1000880F3A95EAF78095822388B908952BB119
:100C2000318181E090E001C0880F3A95EAF7809524
:100C300082238BB90895FC0180810895FC01818194
:100C40000895FC01608341836334E9F028F4613442
:100C500031F0623471F008956434F9F0089581B18F
:100C600021E030E001C0220F4A95EAF7822B81B9DA
:100C7000089584B121E030E001C0220F4A95EAF7DF
:100C8000822B84B9089587B121E030E001C0220FA2
:100C90004A95EAF7822B87B908958AB121E030E0BE
:100CA00001C0220F4A95EAF7822B8AB90895FC0108
:100CB000608341830C9421060F931F93CF93DF939E
:100CC000EC010E94A4058E010E5F1F4FC8010E9417
:100CD000A4058AE58C838D8346E063E4CE010E94FF
:100CE000210647E063E4C801DF91CF911F910F9186
:100CF0000C9421069B0190E080E08217930731F06D
:100D000042E04A95F1F700C00196F7CF0895EF92BF
:100D1000FF920F931F93CF93DF9300D000D000D0AA
:100D2000CDB7DEB78D839E83F62E842F90E0B0E0A2
:100D3000A0E089839A83AB83BC83BC01CD010E9470
:100D4000AF152BE237E84EE350E469837A838B8357
:100D50009C8369817A818B819C810E943B1620E073
:100D600030E444E054E469837A838B839C83698113
:100D70007A818B819C810E94121569837A838B838F
:100D80009C8369817A818B819C810E947E158B0175
:100D90009EE0F91681F0AFE0FA1631F126960FB613
:100DA000F894DEBF0FBECDBFDF91CF911F910F91A1
:100DB000FF90EF9008958D819E810E94A505B80156
:100DC0008D819E810E947A068D819E8126960FB626
:100DD000F894DEBF0FBECDBFDF91CF911F910F9171
:100DE000FF90EF900C94DE05ED80FE80B2E0EB0EFC
:100DF000F11CC7010E94A505B8018D819E810E944A
:100E00007A06C701E3CFCF92DF92EF92FF920F9362
:100E10001F93FC0153834283718360833583248352
:100E200017830683F186E086D386C28681E08587B4
:100E300067E771E0CF010E961F910F91FF90EF9041
:100E4000DF90CF900C94D0170F931F93CF93DF9325
:100E5000CDB7DEB7CF5ED1400FB6F894DEBF0FBE80
:100E6000CDBF8C018AEBE9E8F1E0DE01119601903B
:100E70000D928A95E1F780E4E3E4F2E0DE01A25905
:100E8000BE4F01900D928A95E1F78CE6E3E8F2E01F
:100E9000DE01A554BF4F01900D928A95E1F787E4DA
:100EA000EFEEF2E0DE01A95DBE4F01900D928A9552
:100EB000E1F78CE2E6E3F3E0DE01A255BE4F0190DC
:100EC0000D928A95E1F786E1E5E4F1E0DE01A652B4
:100ED000BE4F01900D928A95E1F748E050E0BE01C7
:100EE00066527E4FF801848195810E944711F80176
:100EF0009485923021F168F424813581911119C0D3
:100F00004AEB50E0BE016F5F7F4FC9010E9447115D
:100F100004C09430E9F0953009F1C151DE4F0FB6AD
:100F2000F894DEBF0FBECDBFDF91CF911F910F911F
:100F3000089540E450E0BE0162597E4FE6CF4CE692
:100F400050E0BE0165547F4FF80184819581DECF6A
:100F500047E450E0BE01695D7E4FF6CF4CE250E0C1
:100F6000BE0162557E4FF0CFCF93DF93EC018A81B3
:100F70009B810E949F028823D1F38A819B810E94DA
:100F80002103843039F068F4823021F0833011F08D
:100F9000813069F78C878A819B81DF91CF910C9496
:100FA000EA028530B9F38630A9F3E1CF0F931F939E
:100FB000CF93DF93CDB7DEB7C254D1090FB6F89403
:100FC000DEBF0FBECDBF8C01FC01808191810E94EC
:100FD000C310F801828193810E94EA0282E4E2E672
:100FE000F3E0DE01119601900D928A95E1F742E45B
:100FF00050E0BE016F5F7F4FF801848195810E94B0
:101000004711F801828193810E94F802F801148649
:10101000828193810E94EA02CE5BDF4F0FB6F89483
:10102000DEBF0FBECDBFDF91CF911F910F9108950D
:10103000BF92CF92DF92EF92FF920F931F93CF93C5
:10104000DF93CDB7DEB7C254D1090FB6F894DEBF37
:101050000FBECDBF8C01FC01808191810E94C31025
:10106000F801808191810E943311882309F445C0E1
:10107000F12CE12C6801FEE0CF0ED11C8AE0B82EE5
:1010800081E08E15E8F0F801828193810E949F0231
:101090008823B1F3F801828193810E9421038A3071
:1010A00030F4FB9C800D1124F82EE394E9CF42E14B
:1010B00050E0B601F801848195810E944711E0CF8C
:1010C0006F2DF801808191810E945D10F8011486D6
:1010D000828193810E94EA02CE5BDF4F0FB6F894C3
:1010E000DEBF0FBECDBFDF91CF911F910F91FF905B
:1010F000EF90DF90CF90BF900895F80182819381A7
:101100000E94EA0282E4E4EAF3E0DE011196019033
:101110000D928A95E1F742E450E0BE016F5F7F4F88
:10112000F801848195810E944711F80182819381A1
:101130000E94F802CBCFFC01158614868281938130
:101140000C94EA02FC018585811102C091E095872B
:1011500008959F92AF92BF92CF92DF92EF92FF924B
:101160000F931F93CF93DF938C01D0E0C0E0B12C9D
:101170007C018EE0E80EF11C2AE0922E34E6A32ECC
:1011800048EEC42E43E0D42EF801828193810E9460
:101190009F028823C9F3F801828193810E94210371
:1011A000F2E0BF16C1F193E0B916F1F1E1E0BE162D
:1011B000B1F0833050F48C9D90018D9D300D112441
:1011C000C20FD31FBB24B394DFCF42E150E0B7017D
:1011D000F801848195810E944711B12CD5CFC03D83
:1011E000F7E0DF0768F0843038F48A9DC00DD11D28
:1011F000112492E0B92EC8CFC03D97E0D90711F471
:101200008A3098F342E150E0B701F801848195817A
:101210000E944711B9CF8630A8F7899DC00DD11D16
:10122000112483E0B82EB0CF8A3060F7C80FD11DEB
:10123000CE01DF91CF911F910F91FF90EF90DF9042
:10124000CF90BF90AF909F900895CF93DF93EC0124
:101250000E94A908BC018E819F810E94F2031C8616
:101260008A819B81DF91CF910C94EA020F931F93A7
:10127000CF93DF93EC018C01025F1F4F8A819B812A
:101280000E949F028823D1F38A819B810E942103BF
:1012900096EF980F963040F042E150E0B8018C8113
:1012A0009D810E944711EACFDF91CF911F910F914D
:1012B0000895BF92CF92DF92EF92FF920F931F9308
:1012C000CF93DF9300D00F92CDB7DEB78C016A5079
:1012D000698323E0D22E643010F4DD24D3941A8283
:1012E0001B8278018EE0E80EF11C8AE0C82E94E69D
:1012F000B92EEB81ED1508F05EC0F8018281938173
:101300000E949F028823A9F3F801828193810E94A1
:101310002103F981F43058F4823008F043C09B81F6
:101320009F5F9B838A83E5CF93E09B83E2CFFB8122
:10133000F130B1F0F23051F1823040F49A818B9D5E
:10134000900D11249A83E1E0EB83D3CF42E150E08A
:10135000B701F801848195810E9447111B82C9CF92
:10136000FA81F43651F4893040F48C9D802D11249B
:101370008C598A8382E08B83BCCF8A3098F49A811F
:101380008C9D900D11249A83E2E0DECFFA81F43B2C
:1013900011F4882349F28A3028F49A81980F9A83AD
:1013A000E3E0D2CF42E150E0B701F80184819581BA
:1013B0000E9447119ECF8A810F900F900F90DF916E
:1013C000CF911F910F91FF90EF90DF90CF90BF9042
:1013D0000895EF92FF920F931F93CF93DF9300D066
:1013E00000D00F92CDB7DEB77C010E943609182FCE
:1013F000682FC7010E945909082F212F50E040E0B3
:1014000060E0CE0101960E946211F701648175814E
:10141000CE0101960E94A611F70142855385608591
:101420007185CE0101960E946B11F70114868281AD
:1014300093810E94EA020F900F900F900F900F90EF
:10144000DF91CF911F910F91FF90EF900895CF9270
:10145000DF92EF92FF920F931F93CF93DF9300D011
:1014600000D00F92CDB7DEB77C010E94A9086C01B5
:10147000C7010E943609182F682FC7010E94590919
:10148000082F3091A20581E0830F8093A205C60149
:1014900064E670E00E94F7142CE3269FA001279FCA
:1014A000500D1124480F591F212F632FCE01019693
:1014B0000E946211BE016F5F7F4FF70180819181B1
:1014C0000E944A0EF7011486828193810E94EA02EB
:1014D0000F900F900F900F900F90DF91CF911F9171
:1014E0000F91FF90EF90DF90CF900895DC011C9654
:1014F000EC91E73098F4F0E0E654F54E0C940B15BF
:101500000C94B4070C9425090C94E9090C94D607A3
:101510000C94270A0C9418080C949B080895CF93F8
:10152000DF93EC01CB01BA01188219821A821B8267
:101530004C837D83188619860E94D2134C815D816D
:1015400060E081E00E948B1380E190E00E94A81689
:101550009F838E83DF91CF910895FC0186819781CF
:101560000C943E171F93CF93DF93EC01162F2C8121
:101570003D81462F6B8181E00E9493131A83DF9196
:10158000CF911F9108951F93CF93DF93EC01162FF6
:101590002C813D814A8181E00E9493131B83DF915E
:1015A000CF911F910895FC01862F603248F461832A
:1015B00064817581803110F40C94C513805DFCCF7B
:1015C0000895CF93DF93EC018C819D810E947F135E
:1015D00018826981CE01DF91CF910C94D30A6F926A
:1015E0007F928F929F92AF92BF92CF92DF92EF92B3
:1015F000FF920F931F93CF93DF93EC018B01F42E97
:10160000E22ECB010E94E7126C017A808B8060E0B1
:10161000CE010E94B20A60E0CE010E94C30AEE2011
:1016200019F0CE010E94E10A2FE12F1508F45CC0E9
:101630008F2D90E0A601552720E230E0281B390BC2
:10164000C216130611F00CF04FC09C2C6C817D81EA
:10165000EFE0EF1548F1840F951FEC2C40971CF03C
:1016600080E1E82EEF188F2D0E94C513602E5801DF
:101670006C817D818A2D86198E1530F4F50181915A
:101680005F010E94CC13F4CF80E40E94C5130E0DBD
:10169000111DE914D8F46C817D81F80181918F01CD
:1016A0000E94CC13E394F5CF80E38F0D0E94C51305
:1016B000E02E58018A2D8E19891540F46C817D81A8
:1016C000F50181915F010E94CC13F4CF6981CE01B5
:1016D0000E94D30A672DCE010E94B20A682DCE0166
:1016E0000E94C30AFC0CF882DF91CF911F910F91E9
:1016F000FF90EF90DF90CF90BF90AF909F908F9032
:101700007F906F9008956115710511F00C94EF0AA8
:1017100008950F931F93CF93DF9300D0CDB7DEB71B
:101720008C011A82698320E0FC014081BE016F5F59
:101730007F4F0E94EF0AC8010F900F90DF91CF9169
:101740001F910F910895EF92FF920F931F93CF93E4
:10175000DF938C01862FEA016830B8F42097A9F056
:10176000F80164817581880F880F880F0E94BD136E
:101770007E01F8E0EF0EF11CF8016481758189911A
:101780000E94CC13CE15DF05B9F7DF91CF911F91E1
:101790000F91FF90EF900895CF93DF93EC01CB0171
:1017A000892B29F020E04881CE010E94830BCE01D5
:1017B000DF91CF910895CF93DF93EC017F936F93E7
:1017C00086EE93E09F938F938F818F938E818F937B
:1017D0000E94D7176E817F81CE010E94CC0B0F90A3
:1017E0000F900F900F900F900F90CE01DF91CF913F
:1017F0000895CF93DF93EC017F936F9389EE93E08D
:101800009F938F938F818F938E818F930E94D71791
:101810006E817F81CE010E94CC0B0F900F900F90B4
:101820000F900F900F90CE01DF91CF910895CF933D
:10183000DF93EC011F926F938CEE93E09F938F9355
:101840008F818F938E818F930E94D7176E817F81B6
:10185000CE010E94CC0B0F900F900F900F900F9025
:101860000F90CE01DF91CF9108950F931F93CF93E7
:10187000DF93EC018B016115710561F0288581E032
:1018800028274985CE010E94830B8885882311F083
:1018900018861986C801DF91CF911F910F91089585
:1018A000FC01603218F4618781E08087CF010895E0
:1018B0000F931F93CF93DF93EC018881082F681754
:1018C00008F4062F801B888310E0101731F060E2C7
:1018D000CE010E94890B1F5FF8CF8881811B88830E
:1018E000DF91CF911F910F910895FF920F931F9356
:1018F000CF93DF9300D0CDB7DEB78C01F62EFC017D
:101900001182108204960E94A405F801F78262E019
:10191000CE0101960E94570489819A81F801938330
:10192000828340E062E4CE0101960E9457068981DD
:101930009A81F801958384830F900F90DF91CF9166
:101940001F910F91FF9008950F931F93CF93DF93F3
:1019500000D000D0CDB7DEB789839A83E981FA81C0
:101960001682118210828F010C5F1F4FC8010E94E6
:10197000A505FAE1FA95F1F700C0C8010E94DE055D
:10198000E981FA81978180B18923E9F381E0E981D6
:10199000FA8186836AE370E0CF0102960E945B04BD
:1019A000E981FA81808191818D36924038F480B14D
:1019B000E981FA8197818923981791F3E981FA8166
:1019C0001682808191819C0150E040E029833A8316
:1019D0004B835C83CA01B9010E94AD1569837A8388
:1019E0008B839C8369817A818B819C810F900F907E
:1019F0000F900F90DF91CF911F910F9108956AE39F
:101A000070E002960C945B04FC0186810895FC0151
:101A1000808191810196918380830895AF92BF92D6
:101A2000CF92DF92EF92FF920F931F93CF93DF93AA
:101A3000EC010E94A4055E0182E0A80EB11CC50164
:101A40000E94A4056E0184E0C80ED11CC6010E944C
:101A5000A4058E010A5F1F4FC8010E94A4057E01E4
:101A600088E0E80EF11CC7010E94A4051A861B86B7
:101A70001C861D8643E061E4CE010E94210644E0FD
:101A800061E4C5010E94210645E061E4C6010E94AF
:101A9000210646E061E4C8010E94210647E061E4B6
:101AA000C7010E942106C801DF91CF911F910F91BC
:101AB000FF90EF90DF90CF90BF90AF900C94A50572
:101AC000CF93DF93EC012296CE010E94A505CE01B3
:101AD000DF91CF910C94DE05CF92DF92EF92FF92CF
:101AE0000F931F93CF938C01C62F88E0E82EF12C23
:101AF000680184E0C80ED11CC7FF03C0C6010E9464
:101B0000A505C8010E94A505C8010E94DE05C60101
:101B10000E94DE05CC0F81E0E81AF10869F7CF9149
:101B20001F910F91FF90EF90DF90CF900895CF938A
:101B3000DF93EC016D850E946C0D6C85CE010E94D7
:101B40006C0D6B85CE010E946C0D6A85CE01DF9114
:101B5000CF910C946C0DEF92FF920F931F93CF9344
:101B6000DF93EC01162F88E0E82EF12C0FE71C30F4
:101B700041F1F8F41A3009F11B3009F10695CE0154
:101B80000E94970DCE010E94600D2FE38DE093E03F
:101B9000215080409040E1F700C0000021E0E21AAF
:101BA000F10829F7DF91CF911F910F91FF90EF90EE
:101BB00008951D3019F70D87E1CF0A87DFCF0B8716
:101BC000DDCF0C87DBCFEF92FF920F931F93CF9364
:101BD000DF93EC01062F88E0E82EF12C11E00C30A9
:101BE00049F100F50A3011F10B3011F1110F1160BC
:101BF000CE010E94970DCE010E94600D2FE38DE073
:101C000093E0215080409040E1F700C0000021E0C7
:101C1000E21AF10821F7DF91CF911F910F91FF9008
:101C2000EF9008950D3011F71D87E0CF1A87DECFB2
:101C30001B87DCCF1C87DACFFC016C3079F030F4E5
:101C40006A3041F06B3041F085E508956D30E1F781
:101C500085850895828508958385089584850895EE
:101C6000CF93DF93EC01798368835B834A833D8361
:101C70002C83188684EF91E00E94A8169B878A87A0
:101C8000FE01EC52FF4F1082319610821986DF91CF
:101C9000CF910895CF93DF93DC01FB0118961C923E
:101CA0001897EC01CC52DF4F9881953680F41A9644
:101CB0000D90BC91A02D81E0890F888385E0989FCD
:101CC000A00DB11D112401900D928A95E1F7DF91CD
:101CD000CF910895AF92BF92CF92DF92EF92FF9291
:101CE0000F931F93CF93DF93EC01F8948881998130
:101CF0000E94A7036C011986888199810E9427049C
:101D0000F12CE12C811105C0888199810E94230466
:101D10007C01888199810E9427048E010B521F4FFC
:101D2000882339F08985811104C0D8011C9281E093
:101D300089875E01B4EDAB0EB11CD801EC91F0E0E7
:101D40003696EE0FFF1FEC0FFD1F808191810E94E0
:101D5000E012C816D90630F0D801EC91D5018C916B
:101D6000E81760F07894DF91CF911F910F91FF9069
:101D7000EF90DF90CF90BF90AF900895F0E036964F
:101D8000EE0FFF1FEC0FFD1F808191810E94E0127A
:101D90008E159F0580F04C815D816A817B81D80121
:101DA000EC91F0E03696EE0FFF1FEC0FFD1F8081E7
:101DB00091810E946B11F80180818F5F8083BDCF7C
:101DC0002F923F924F925F926F927F928F929F924B
:101DD000AF92BF92CF92DF92EF92FF920F931F9339
:101DE000CF93DF93CDB7DEB72A970FB6F894DEBF57
:101DF0000FBECDBF5C018B01CA014DB75EB75A87DC
:101E000049877C01E61AF70A5FEFE51AF50A3901FE
:101E1000681A790A9701220F331FEDB7FEB7E21B4C
:101E2000F30B0FB6F894FEBF0FBEEDBF2DB73EB754
:101E30002F5F3F4F19019301220F331F4DB75EB73C
:101E4000421B530B0FB6F8945EBF0FBE4DBFEDB7EC
:101E5000FEB73196FC83EB832801F6E04F0E511C50
:101E6000440C551CD501A40DB51DF10130E020E056
:101E70002E153F050CF44AC0FC013796EE0FFF1FEC
:101E8000EA0DFB1DAB81BC8190E080E086159705D3
:101E90000CF443C02CE0421A51084A0C5B1CD12CB4
:101EA000C12C912C812C8E149F04B4F4C614D70439
:101EB000D4F1F8013696EE0FFF1FEA0DFB1DC401A9
:101EC0008E159F050CF467C0E814F9040CF460C08B
:101ED000E818F9080E0D1F1D0A5F1F4F000F111F94
:101EE000F501E00FF11FC614D7040CF05FC0D60156
:101EF000AA0FBB1F4B815C81A40FB51F8D919C91D4
:101F0000819391935FEFC51AD50AEDCF4D915D9105
:101F1000419351932F5F3F4FABCF219131912D933F
:101F20003D930196B3CFF401EE0FFF1FE20DF31DB9
:101F3000408151815E834D83CA010E94E0128983F2
:101F40009A83F601EE0FFF1F8B819C81E80FF91F2A
:101F50002081318138872F83C9010E94E012498195
:101F60005A818417950770F05FEF851A950A2D81C5
:101F70003E81F201358724870F5F1F4F32E0430E09
:101F8000511C91CF3FEFC31AD30A2F813885F1CF6F
:101F9000F12CE12C9FCFDC01AA0FBB1FA20DB31DBA
:101FA0002D913C912193319301968ACF89859A8511
:101FB0000FB6F8949EBF0FBE8DBF2A960FB6F89449
:101FC000DEBF0FBECDBFDF91CF911F910F91FF906C
:101FD000EF90DF90CF90BF90AF909F908F907F90C9
:101FE0006F905F904F903F902F900895CF92DF9227
:101FF000EF92FF920F931F93CF93DF936C018B01AE
:102000007A01641775071CF5CB01840F951FEC014D
:102010002197D7FDEC01D595C795AE01B801C60152
:102020000E94F60FBE016F5F7F4FA701C6010E949D
:10203000F60F9701AE01B801C601DF91CF911F9154
:102040000F91FF90EF90DF90CF900C94E00EDF9116
:10205000CF911F910F91FF90EF90DF90CF90089557
:10206000CF93DF93EC018885811124C0FE01EC52EF
:10207000FF4FE0814E2F50E0DE011C9690E080E0A3
:1020800030E020E02417350750F46A857B85680F1F
:10209000791F6D937D932F5F3F4F0596F3CFEE230E
:1020A00049F04150510970E060E0CE010E94F60F06
:1020B00081E08887DF91CF910895BF92CF92DF9220
:1020C000EF92FF920F931F93CF93DF93EC01162FA4
:1020D0008885811103C0CE010E943010E12FF0E00D
:1020E0003696EE0FFF1FEC0FFD1F808191810E943D
:1020F000E412082F7E0184EDE80EF11CF7018081C7
:102100008150990BE12FF0E0E817F90754F4EE0F36
:10211000FF1FEC0FFD1F26853785358724871F5F3E
:10212000F1CF10E085E0B82EF70180811817F8F4A0
:102130001B9D600111248A859B858C0D9D1D0E942D
:10214000E412801312C02A853B85D901AC0DBD1D58
:10215000F7018081F9018B9DE00DF11D1124359768
:1021600085E001900D928A95E1F71F5FDDCF8150E8
:102170008083DF91CF911F910F91FF90EF90DF90BF
:10218000CF90BF9008957F928F929F92AF92BF920F
:10219000CF92DF92EF92FF920F931F93CF93DF9333
:1021A00000D000D0CDB7DEB78C010E943010712C6A
:1021B000480184ED880E911C9FEEA92E93E0B92E64
:1021C000FE0131966F01F4018081781660F5E72CED
:1021D000F12C1F927F92BF92AF92DF92CF920E941A
:1021E000D717AC01B601F801868197810E9447118B
:1021F000F80166817781F7013696EE0FFF1FE00F39
:10220000F11F808191810E94A6116AE0F801868108
:1022100097810E94581173940F900F900F900F9018
:102220000F900F90D0CF811109C047E250E068E1D4
:1022300071E0F801868197810E9447110F900F90FD
:102240000F900F90DF91CF911F910F91FF90EF9022
:10225000DF90CF90BF90AF909F908F907F90089528
:10226000FC0161870895FC01EC52FF4F80810895C5
:102270001092C5008FEC8093C40080E28093C00070
:1022800088E98093C10086E08093C2000895FB0135
:10229000BA0120E0822F90E08617970744F48E0F52
:1022A0009F1FDC018C918093C6002F5FF3CF0895B0
:1022B0006093C60008958091C00087FFFCCF809195
:1022C000C60008950F93FC016083528341832383EA
:1022D00004830F9108950F931F93CF93DF93EC0125
:1022E0008B01CA016B8126EF260F2430F8F48C8114
:1022F00081110DC0C8010E941C0E882311F16B8151
:10230000C801DF91CF911F910F910C94AB0D8130DB
:10231000C1F4C8010E941C0E8F3F99F06B81C80167
:10232000DF91CF911F910F910C94E30D22EF260FB7
:10233000223038F44C81DF91CF911F910F910C9492
:102340008706DF91CF911F910F910895CF92DF9271
:10235000EF92FF920F931F93CF93DF93CDB7DEB72A
:10236000E0970FB6F894DEBF0FBECDBF7C018B01A6
:102370008091040490910504A0910604B091070493
:102380008DA79EA7AFA7B8AB44E050E0BE01635D48
:102390007F4FC8010E944711F701818192816CE350
:1023A00070E00E94F7149F938F937F936F9384EF55
:1023B00093E09F938F936E01F8E1CF0ED11CDF92D3
:1023C000CF920E94D717AC01B601C8010E944711F5
:1023D00044E050E0BE01635D7F4FC8010E94471199
:1023E000F701838196EF980F0FB6F894DEBF0FBE0A
:1023F000CDBF943008F078C08481811111C08EE087
:10240000E8E0F4E0DE01119601900D928A95E1F783
:102410004EE050E0BE016F5F7F4FC8010E94471140
:10242000F7018481813089F48EE0E6E1F4E0DE0199
:10243000119601900D928A95E1F74EE050E0BE01B1
:102440006F5F7F4FC8010E944711F70183818A3077
:1024500061F481E490E09A83898342E050E0BE0118
:102460006F5F7F4FC8010E944711F70183818B3056
:1024700061F482E490E09A83898342E050E0BE01F7
:102480006F5F7F4FC8010E944711F70183818C3035
:1024900061F483E490E09A83898342E050E0BE01D6
:1024A0006F5F7F4FC8010E944711F70183818D3014
:1024B00061F484E490E09A83898342E050E0BE01B5
:1024C0006F5F7F4FC8010E944711E0960FB6F894E6
:1024D000DEBF0FBECDBFDF91CF911F910F91FF9057
:1024E000EF90DF90CF9008958E50823070F787E1A3
:1024F000E4E2F4E0DE01119601900D928A95E1F795
:1025000047E150E0BE016F5F7F4FC8010E94471155
:10251000F70183818E3089F485E0EBE3F4E0DE019E
:10252000919601900D928A95E1F745E050E0BE0149
:102530006F5D7F4FC8010E944711F70183818F3083
:1025400089F485E0E0E4F4E0DE01919601900D92DB
:102550008A95E1F745E050E0BE016F5D7F4FC8010D
:102560000E944711F70184811F928F938FEF93E0B0
:102570009F938F937E01F9E2EF0EF11CFF92EF9291
:102580000E94D71743E050E0B701C8010E944711ED
:1025900088E0E5E4F4E0DE01919601900D928A95E1
:1025A000E1F748E050E0BE016F5D7F4FC8010E9437
:1025B00047110F900F900F900F900F900F9085CFB5
:1025C000FC01818192810895FC01808108959C0124
:1025D00090E080E00196F901E80FF91F4081411178
:1025E000F9CF0895EF92FF920F931F93CF93DF934C
:1025F000EC01FB011F86309701F17C018FE0E80EB2
:10260000F11C2EE0042F10E0CF01B8010E94F71456
:10261000DC01A35BBB4F8C91D7018E937D012150D0
:10262000CF01FB018017910710F02111EDCF822F10
:1026300090E001968C0F9D1F03C00E9620E32E871D
:10264000DF91CF911F910F91FF90EF9008959C0122
:1026500090E080E08217930741F0EFECF7E03197CC
:10266000F1F700C000000196F5CF0895FC018081CC
:102670008062808384E08A95F1F780818F7D8083FA
:102680000895DF92EF92FF920F931F93CF93DF9302
:10269000D42EE901062F10E090E8899F70011124E3
:1026A0008881817288838881980194E03595279587
:1026B0009A95E1F7220F331F2E29282B2883CE016C
:1026C0000E9436138881817288838881000F111FD0
:1026D0000E710E29082B0883CE010E94361380E06C
:1026E0009AE19A95F1F700C08F5FD812F9CFDF9188
:1026F000CF911F910F91FF90EF90DF9008959C0173
:1027000044EA61E080E00C9441139C0144EA62E0F9
:1027100080E00C9441139A01880F682B646044E0B8
:1027200080E00C94411354E0859FC0011124482B94
:10273000660F642B686044E080E00C9441139A01BA
:1027400048E0849FC001112444E0649FB00111243B
:10275000682B606144E080E00C9441139A0140E1F1
:10276000849FC001112448E0649FB0011124682BAC
:10277000606244E080E00C9441139B018F77682FE6
:10278000606444E080E00C9441139B01682F606812
:1027900044E080E00C9441139B0144E0682F81E009
:1027A0000C944113CF93DF93FC01EB018FE295E78B
:1027B0000197F1F700C000008081817280838081E1
:1027C0008FEF808388818172888388818660888387
:1027D00088818E7F8883CB010E94361387E090E248
:1027E0000197F1F700C00000CE010E94361387EC7C
:1027F00090E00197F1F700C00000CE010E9436136F
:102800009AE69A95F1F700C0888181728883888161
:1028100084608883CE010E9436138AE68A95F1F798
:1028200000C09E0144E06CE280E00E9441139E01E2
:1028300040E060E080E00E949313CE010E947F138D
:10284000AE0160E081E00E948B139E0140E060E0F9
:1028500081E0DF91CF910C949313CDB7DEB76697EB
:102860000FB6F894DEBF0FBECDBF789480E995E037
:102870000E946403809162048823C9F08130D1F002
:1028800089E595E00E94950586E1E5E4F1E0DE0149
:10289000119601900D928A95E1F748E050E0BE0153
:1028A0006F5F7F4F81EA95E00E944711E3CF0E945E
:1028B000CC00E6CF0E942001E3CF8F92AF92CF925F
:1028C000DF92EF92FF920F931F9381EA95E00E94AF
:1028D000381143E064E48EE995E00E94350580E913
:1028E00095E00E94240361E088E895E00E94750C61
:1028F00084E08F9383E48F9393E09F938F9382E0A0
:10290000882E93E4A92ECC24C39423E4E22E05E080
:1029100023E440E063E487E795E00E94A30189E6B1
:1029200095E00E940E0D83E695E00E945C0689E525
:1029300095E00E948F0523E635E049E655E060E921
:1029400075E083E894E00E94300E33E6C32E35E054
:10295000D32E49E6E42E45E0F42E00E915E021EA05
:1029600035E047E755E063E874E083E694E00E94D1
:1029700003070F900F900F900F901F910F91FF90F2
:10298000EF90DF90CF90AF908F90089589E595E01C
:102990000E94AD0A86E995E00C9430040E94D3149D
:1029A00008F481E00895990F0008550FAA0BE0E89C
:1029B000FEEF16161706E807F907C0F01216130601
:1029C000E407F50798F0621B730B840B950B39F441
:1029D0000A2661F0232B242B252B21F408950A26A7
:1029E00009F4A140A6958FEF811D811D0895AA1BB2
:1029F000BB1B51E107C0AA1FBB1FA617B70710F0EA
:102A0000A61BB70B881F991F5A95A9F7809590951B
:102A1000BC01CD010895EE0FFF1F0590F491E02D4C
:102A200009945058BB27AA270E9429150C94011617
:102A30000E94F31538F00E94FA1520F039F49F3FF8
:102A400019F426F40C94F0150EF4E095E7FB0C94C1
:102A5000EA15E92F0E94121658F3BA176207730796
:102A60008407950720F079F4A6F50C9434160EF43B
:102A7000E0950B2EBA2FA02D0B01B90190010C018E
:102A8000CA01A0011124FF27591B99F0593F50F4A6
:102A9000503E68F11A16F040A22F232F342F4427FE
:102AA000585FF3CF469537952795A795F0405395F6
:102AB000C9F77EF41F16BA0B620B730B840BBAF0C6
:102AC0009150A1F0FF0FBB1F661F771F881FC2F731
:102AD0000EC0BA0F621F731F841F48F48795779545
:102AE0006795B795F7959E3F08F0B0CF9395880FFF
:102AF00008F09927EE0F9795879508950E941A166A
:102B000088F09F5798F0B92F9927B751B0F0E1F0AE
:102B1000660F771F881F991F1AF0BA95C9F714C05E
:102B2000B13091F00E943416B1E008950C9434163F
:102B3000672F782F8827B85F39F0B93FCCF3869597
:102B400077956795B395D9F73EF4909580957095F4
:102B500061957F4F8F4F9F4F0895E89409C097FB71
:102B60003EF490958095709561957F4F8F4F9F4F64
:102B70009923A9F0F92F96E9BB279395F6958795A8
:102B800077956795B795F111F8CFFAF4BB0F11F46B
:102B900060FF1BC06F5F7F4F8F4F9F4F16C0882312
:102BA00011F096E911C0772321F09EE8872F762F48
:102BB00005C0662371F096E8862F70E060E02AF089
:102BC0009A95660F771F881FDAF7880F9695879575
:102BD00097F9089597F99F6780E870E060E008959D
:102BE0009FEF80EC089500240A9416161706180625
:102BF0000906089500240A94121613061406050601
:102C00000895092E0394000C11F4882352F0BB0F91
:102C100040F4BF2B11F460FF04C06F5F7F4F8F4FF4
:102C20009F4F089557FD9058440F551F59F05F3F2F
:102C300071F04795880F97FB991F61F09F3F79F0DE
:102C400087950895121613061406551FF2CF469560
:102C5000F1DF08C0161617061806991FF1CF8695E2
:102C60007105610508940895E894BB2766277727C6
:102C7000CB0197F908950E944E160C9401160E94FC
:102C8000F31538F00E94FA1520F0952311F00C94FA
:102C9000EA150C94F01511240C9435160E941216A6
:102CA00070F3959FC1F3950F50E0551F629FF0019F
:102CB000729FBB27F00DB11D639FAA27F00DB11DB8
:102CC000AA1F649F6627B00DA11D661F829F222741
:102CD000B00DA11D621F739FB00DA11D621F839FC8
:102CE000A00D611D221F749F3327A00D611D231F9E
:102CF000849F600D211D822F762F6A2F11249F57EC
:102D000050409AF0F1F088234AF0EE0FFF1FBB1FEE
:102D1000661F771F881F91505040A9F79E3F5105AD
:102D200080F00C94EA150C9435165F3FE4F3983E5E
:102D3000D4F3869577956795B795F795E7959F5F57
:102D4000C1F7FE2B880F911D9695879597F90895E9
:102D50000F931F93CF93DF939C01029710F422E00F
:102D600030E0E091A505F091A60590E080E0B0E0AC
:102D7000A0E0309791F4009709F445C0821B930BB3
:102D800084309105B8F58A819B816115710569F1DF
:102D9000FB0193838283FE0111C040815181028136
:102DA000138142175307F0F04217530799F4109715
:102DB00061F012960C93129713961C933296CF01E2
:102DC000DF91CF911F910F9108950093A505109366
:102DD000A605F4CF009719F04817590718F4CA014F
:102DE000BD01EF01DF01F801C4CF9093A6058093E8
:102DF000A505D1CFFE01E80FF91F2193319302976A
:102E000099838883DCCF8091A3059091A405892BB9
:102E100041F480914101909142019093A4058093E7
:102E2000A30580913F0190914001009741F48DB737
:102E30009EB74091430150914401841B950B4091F2
:102E4000A3055091A4054817590708F0B8CF841B73
:102E5000950B8217930708F4B2CFB9016E5F7F4FCD
:102E60008617970708F4ABCF640F751F7093A405FE
:102E70006093A305FA0121933193A1CFCF93DF9300
:102E80009C010097E9F0FC01329713821282C091F5
:102E9000A505D091A605DE0190E080E02097A1F481
:102EA00080819181280F391F8091A3059091A405FD
:102EB0008217930709F067C0F093A405E093A30578
:102EC000DF91CF910895DA01AE17BF0708F041C036
:102ED00012964D915C911397CD014115510599F7CB
:102EE000DC011396FC93EE9312974D915D91A40F24
:102EF000B51FEA17FB0781F4208131812E5F3F4F18
:102F0000240F351FDC0111963C932E9322813381CF
:102F100013963C932E931297B0E0A0E08A819B8198
:102F20000097B1F5FE0181919191E80FF91F809111
:102F3000A3059091A4058E179F0711F6109759F5D8
:102F40001092A6051092A505D093A405C093A305E1
:102F5000B7CFB383A28340815181240F351FA217BD
:102F6000B30771F44E5F5F4F2D913C911197420F63
:102F7000531F5183408312962D913C9133832283BA
:102F8000009709F0ADCFF093A605E093A50598CF83
:102F9000DE01EC01C3CF13961C921E921297D4CF80
:102FA000FB01DC0101900D920020E1F70895AEE0F5
:102FB000B0E0EDEDF7E10C94841A0D891E8986E0EE
:102FC0008C831A8309838FEF9FE79E838D83AE01E5
:102FD000475E5F4F6F89788DCE0101960E94FA1788
:102FE0002F813885020F131FF80110822E96E4E01E
:102FF0000C94A01AAFE0B0E0E0E0F8E10C94761A8F
:103000007C013B018A01DC0117961C921E921697E7
:1030100013968C9181FFC3C19AE0292EFE0131964F
:103020004F01D70113969C91F30193FD859193FF76
:1030300081913F01882309F448C1853239F493FD19
:10304000859193FF81913F01853229F4B70190E08A
:103050000E94E819E6CFB12C412C512CBFE1B515E7
:1030600038F08B3209F188F4803201F1833221F19A
:1030700057FC3AC020ED280F2A3040F556FE1FC0FD
:10308000B29C200D1124B22E06C08D3291F08033F7
:1030900079F7689450F8F30193FD859193FF81913E
:1030A0003F018111DBCF20C0689451F8689452F839
:1030B000F2CF689453F8EFCF689454F8ECCF429C69
:1030C000200D1124422E689455F8E5CF8E3229F454
:1030D00056FCFBC0689456F8DECF8C3619F4689421
:1030E00057F8D9CF8836B9F2982F9F7D95549330F1
:1030F000C0F08336A1F18337C1F1833509F05BC09D
:10310000D801CD90DD908D016B2D70E056FC02C092
:103110006FEF7FEFC6010E94D2195C01689457F8E7
:103120000AC00C5F1F4FEFE3E983AA24A394B12CDC
:103130006401E89457F853FC04C04A141B0409F0D6
:1031400018F5342CA114B10431F5332009F469CFFA
:10315000B70180E290E00E94E8193A94F6CFD801D6
:103160008C9189830E5F1F4FE0CFF801C190D19001
:103170008F016B2D70E056FC02C06FEF7FEFC60130
:103180000E94DD195C01D5CFB70180E290E00E947A
:10319000E8194A94D2CFF60157FC859157FE8191E8
:1031A0006F01B70190E00E94E81931103A94B1E044
:1031B000AB1AB108C7CF843619F0893609F074C04C
:1031C000F80157FE6AC061917191819191918F01CF
:1031D000E52DEF76DE2E97FF09C0909580957095CE
:1031E00061957F4F8F4F9F4F6894D7F82AE030E06A
:1031F000A4010E94181AC82EC818AC2C5D2CD6FE4B
:103200000CC0E89450F8CB1440F4D4FE05C0D2FCB6
:1032100003C05D2D5E7E552EAB2C54FE98C0FE0182
:10322000EC0DF11D8081803309F08AC0652D697E27
:10323000562E752D7870372E53FC98C050FE92C0D4
:10324000BC2CA41418F44C0CB42CBA1854FE94C022
:10325000B70180E390E00E94E81952FE09C088E7B8
:1032600090E051FE02C088E590E0B7010E94E819A5
:10327000CB1408F48DC0CA94D12C8FEFC81AD80A89
:10328000C80CD91CD6018E916D01B70190E00E9447
:10329000E8198C149D04B1F758CF61917191072EF4
:1032A000000C880B990B93CFD52CE894D4F82AE026
:1032B00030E0853739F1F52DF97FDF2E8037A9F021
:1032C00058F48835A9F08F36D9F0F70186819781B7
:1032D0002F96E2E10C94921A8837B9F7D4FE02C017
:1032E0006894D2F820E130E00DC06894D4F8F6CFAD
:1032F00054FE03C02F2F2660D22E20E132E002C000
:1033000028E030E0F801D7FE15C04191519161915C
:1033100071914C875D876E877F878F01A4016C85D3
:103320007D858E859F850E94181AC82EC818E8943E
:10333000D7F863CF81919191AC0170E060E0E9CF63
:1033400052FC02C0A39475CFA394A39472CF852D91
:10335000867809F46ECFF6CFB70180E290E00E9444
:10336000E819A394A414C0F3312C70CF342C3A186C
:10337000A41408F46BCFF8CF852D867809F478CFA4
:103380008BE251FE80E257FC8DE2B70190E06ECFF8
:10339000B70180E390E00E94E819BA9469CF8FEFFB
:1033A0009FEF96CFFC010590615070400110D8F757
:1033B000809590958E0F9F1F0895FC01615070407D
:1033C00001900110D8F7809590958E0F9F1F08955A
:1033D0000F931F93CF93DF93182F092FEB018B814E
:1033E00081FD09C01FEF0FEF812F902FDF91CF914B
:1033F0001F910F91089582FF14C02E813F818C810F
:103400009D81281739073CF4E881F981CF010196A5
:103410009983888310838E819F8101969F838E83F9
:10342000E3CFE885F985812F0995892BA1F3DACFC0
:10343000FA01AA27283051F1203181F1E8946F93E5
:103440006E7F6E5F7F4F8F4F9F4FAF4FB1E03ED08B
:10345000B4E03CD0670F781F891F9A1FA11D680F29
:10346000791F8A1F911DA11D6A0F711D811D911D5C
:10347000A11D20D009F468943F912AE0269F1124D1
:103480003019305D3193DEF6CF010895462F477035
:10349000405D4193B3E00FD0C9F7F6CF462F4F7090
:1034A000405D4A3318F0495D31FD4052419302D0EE
:1034B000A9F7EACFB4E0A695979587957795679594
:1034C000BA95C9F700976105710508959B01AC0194
:1034D0000A2E06945795479537952795BA95C9F7BB
:1034E000620F731F841F951FA01D08952F923F9296
:1034F0004F925F926F927F928F929F92AF92BF9204
:10350000CF92DF92EF92FF920F931F93CF93DF93AF
:10351000CDB7DEB7CA1BDB0B0FB6F894DEBF0FBE0C
:10352000CDBF09942A88398848885F846E847D8459
:103530008C849B84AA84B984C884DF80EE80FD805B
:103540000C811B81AA81B981CE0FD11D0FB6F894D1
:10355000DEBF0FBECDBFED01089510E0CFE3D0E098
:1035600004C0FE010E940B152196C034D107C9F793
:10357000F894FFCF800A820A840A860A880A8A0A97
:023580008C0AB3
:103582005B016601424F55544F4E20494E56414C05
:10359200494445210A001010496C206E27792061A8
:1035A20020617563756E6520616374696F6E206456
:1035B200652070726F6772616D6DE9652E0A000099
:1035C20000A70520000A0A0A0A0A0A0A0A0A0A0ABF
:1035D2000A0A0A0A0A0A0A0A0A0A0053494D554CFB
:1035E2004154494F4E00434F4E464947555241546C
:1035F200494F4E00257800424F55544F4E20494EB8
:1036020056414C494445210A00312D2044E966695E
:103612006E6972206C276865757265206465206426
:10362200E9706172740A322D2044E966696E69722A
:10363200206C27E9746174206427756E20646973B5
:10364200706F73697469660A332D20416666696317
:10365200686572206C657320616374696F6E732094
:1036620070726F6772616D6DE965730A342D205057
:10367200726F6772616D6D657220756E6520616330
:1036820074696F6E0A352D205375707072696D659D
:103692007220756E6520616374696F6E2070726F3F
:1036A2006772616D6DE9650A362D2044E96D6172BC
:1036B200726572206C612073696D756C6174696FDB
:1036C2006E0A00456E7472657A206C2768657572A1
:1036D20065206574206C6573206D696E7574657301
:1036E2002064652064E970617274206465206C61F5
:1036F2002073696D756C6174696F6E2E2048484D38
:103702004D0A00456E7472657A206C276964656E95
:1037120074696669616E74206427756E20646973CA
:10372200706F736974696620737569766920646560
:103732002073612076616C65757220646520636F09
:103742006E66696775726174696F6E2E2028417C9E
:10375200427C437C442928307C3129206F75202803
:10376200457C4629283030302D313830290A004531
:103772006E7472657A20756E6520616374696F6E0E
:1037820020612070726F6772616D6D65722E2048C4
:10379200484D4D2028417C427C437C442928307C82
:1037A2003129206F752028457C4629283030302D5C
:1037B200313830290A00456E7472657A206C6520B2
:1037C2006E756DE9726F206427756E652061637492
:1037D200696F6E2061207375707072696D65722EEB
:1037E2000A004170707579657A20737572206E27B0
:1037F200696D706F727465207175656C20626F758A
:10380200746F6E20706F757220726576656E697264
:10381200206175206D656E75207072696E636970C6
:10382200616C2E004170707579657220737572201B
:103832006E27696D706F727465207175656C206298
:103842006F75746F6E20706F757220726576656E1B
:103852006972206175206D656E75207072696E6384
:103862006970616C2E0025750025690025630025AD
:1038720030326400253032643A253032642000252B
:1038820030336400202D20006F75767269722070CB
:103892006F72746520006665726D657220706F725A
:1038A200746520006F7269656E746572207365724B
:1038B200766F6D6F7465757273200045206120000C
:1038C20046206120002064656772E973003031325E
:0E38D200333435363738396162636465660019
:00000001FF
